:400000000080002011000000510300005103000080B500AF024B034A12681A6000F09CF9BC760040FA46004010B5054C237833B9044B13B10448AFF300800123237010BDDC
:400040002081FF1F00000000101A000008B5064B1BB106480649AFF300800648036813B1054B03B1984708BD00000000101A00002481FF1F0881FF1F0000000080B582B0DE
:4000800000AF02460B46FA71BB71012001F016F80A4800F0D1FFFB79184601F051F90120002100F093FF064800F0C6FFBB79184601F046F90837BD4680BD00BF141A00002D
:4000C0001C1A000080B483B000AF0346FB71FB79013B072B1AD801A252F823F0FD000000010100000D010000050100000D0100000D0100000D01000009010000002306E0DB
:40010000012304E0022302E0032300E0042318460C37BD465DF8047B704700BF80B582B000AF13460246FA710A46BA717B71FB79312B03D1012001F06BF902E0002001F0FF
:4001400067F9BA797B7910461946FFF797FF0837BD4680BD98B500AF0FE000F091FD03461C4601F021FA03461846FFF7ABFF0346204600211A46FFF7D1FF00F0A3FD034602
:40018000002BEAD198BD00BF98B500AF0FE000F02DFC03461C4601F013FA03461846FFF791FF0346204601211A46FFF7B7FF00F03FFC0346002BEAD198BD00BF98B500AF24
:4001C0000FE000F0DFFC03461C4601F0D5F903461846FFF777FF0346204603211A46FFF79DFF00F0F1FC0346002BEAD198BD00BF98B500AF0FE000F00FFE03461C4601F05F
:40020000C7F903461846FFF75DFF0346204602211A46FFF783FF00F021FE0346002BEAD198BD00BF98B500AF0FE001F019FA03461C4601F09DFA03461846FFF743FF0346BF
:40024000204604211A46FFF769FF01F02BFA0346002BEAD198BD00BF98B500AF0FE001F0D7FA03461C4601F05BFB03461846FFF729FF0346204605211A46FFF74FFF01F00E
:40028000E9FA0346002BEAD198BD00BF80B582B000AF012001F0EAF84FF4FA7000F014FB002001F0E3F84FF4FA7000F00DFB012001F0DCF84FF4FA7000F006FB002001F03C
:4002C000D5F800F01BFC00F097FC00F061FD00F049FB01F081F901F057FA174800F0D6FD164800F007FD164800F0BAFB154801F041F8154801F0EEF9144801F0C3FA00F04B
:4003000055FE012000F0DAFE62B6FF23FB7101F09DF80346BB71BA79FB799A420BD0BB79002B01D0312300E03023184600F000FBBB79FB71EBE7EAE7BD010000F10100008F
:400340005501000089010000250200005902000080B400AFFEE700BF80B586B000AF224B7B61224B3B61204B7B6135E03B691B68FB603B695B68BB603B699B683B60002363
:400380007B600CE0FB681A68BB681A60BB680433BB60FB680433FB607B6804337B607A683B689A42EED13B69DB683B6000237B6008E0BB6800221A60BB680433BB607B68F6
:4003C00004337B607A683B689A42F2D13B6910333B617B69013B7B617B69002BC6D101F0DFFAFFF753FFFEE701000000EC1A000080B582B000AF174B174A1A60174B174A8E
:40040000126842F400721A6000237B600FE07B68032B04D8124B7A6853F8223000E0114B114A796842F821307B6801337B607B682F2BECD90D4B1B78DAB20D4B1A700D4BC2
:40044000094A1A6000F05AF90B4B00221A600837BD4680BD0CED00E00004FA0514ED00E000000000510300000080FF1FBC7600400481FF1F08ED00E00081FF1F80B582B05C
:4004800000AF78603960786800213A6801F0B7FA0837BD4680BD00BF80B584B000AFF860B9607A60F868B9687A6801F09FFA1037BD4680BD80B483B000AF0346FB71FEE712
:4004C00080B487B000AF7860396000233B6100237B6126E07B699B007A6813441B68BB60BB68FB73BB6823F0FF03BB6013E03B695B003A6813441B781A46BB6813443A6978
:40050000520039680A4452781A703B6901333B61FB7B013BFB73FB7B002BE8D17B6901337B617B69212BD5D91C37BD465DF8047B704700BF80B582B000AF434B00221A8066
:40054000424B58221A70424B19221A80414B18221A70414B19221A80404B18221A70404B19221A803F4B18221A703F4B19221A803E4B18221A703E4B19221A803D4B18220E
:400580001A703D4B19221A803C4B18221A703C4B19221A803B4B18221A703B4B02221A704FF0402308221A70384B03221A70384B384A1278D2B21A70374B08221A80374B42
:4005C00041F251221A800023FB7019237B6014E0FB785B00DAB2324B1B78DBB203F00103DBB21343DBB203F00303FB704FF4F07000F056F97B68013B7B607B68002B02D0A4
:40060000FB78032BE4D17B68002B02D10320FFF751FF244B4FF480721A80224B07221A70214B00221A70214B48221A701D4B00221A701F4B02221A701E4B1B781D4BFF2293
:400640001A700837BD4680BD80400040824000408440004086400040884000408A4000408C4000408E40004090400040924000409440004096400040984000409A400040BB
:400680009C4000409E4000400043004000420040A14600400801004922420040204200402542004004400040064000400840004001400040A243004080B483B000AF0B4BF1
:4006C0001B78FB710A4BFA7902F00702D2B21A70084BFA791209D2B21A70074B44221A700C37BD465DF8047B704700BFCF0100496E5800406F5800407658004080B586B0CA
:4007000000AF72B64F4B4F4A1278D2B242F00402D2B21A700023FB7513E0FA7D13465B0013445B00484A13443B613B691A683B699B889BB210461946FFF7A0FEFB7D013344
:40074000FB75FB7D0D2BE8D90023FB751CE0FA7D13469B0013445B003C4A1344FB60FB681B68BB60FB685B687B60FB681A7A5B7A1B0213437B807B88B86879681A46FFF71E
:400780008BFEFB7D0133FB75FB7D052BDFD94FF090402F49FFF794FE2E4B2E4A1278D2B242F00202D2B21A702B4B2B4A1278D2B242F00202D2B21A70284B284A1278D2B2B2
:4007C00042F04002D2B21A70254B254A1278D2B242F01002D2B21A70224823490822FFF75BFE224822490822FFF756FE214822490822FFF751FE214821490822FFF74CFE20
:40080000204821490A22FFF747FE204B1F4A1278D2B242F00802D2B21A701D4B01221A70FFF788FE1A4B81221A701A4B01221A70FFF742FF184809490E22FFF72DFE183795
:40084000BD4680BDE8460040281A00007C1A0000880000480350014013500140A0430040C243004002510040F00C0048C2510040F80C004822510040000D00483251004041
:40088000080D004860510040100D0048224300400048004004000840B0430040000000000230800800F0058000BF013800467FF4FCAF7047EFF3108072B6704780F310883B
:4008C000704700BFAFF3008080B582B000AF786008E00C4B1B681846FFF7E2FF7B68A3F500437B607B68B3F5004FF2D8064B1B687A6802FB03F31846FFF7D2FF0837BD462E
:4009000080BD00BF1881FF1F1081FF1F80B582B000AF0346FB80FB88044A127802FB03F31846FFF7BDFF0837BD4680BD1481FF1F80B483B000AF0346FB7100BF074B1B787C
:40094000DBB203F00403002BF8D1054BFA791A700C37BD465DF8047B704700BF6C6400404C64004080B500AF054B1B78002B04D100F008F8024B01221A7000F013F880BD36
:400980003C81FF1F80B400AF044B72221A70044B20221A70BD465DF8047B70478B6500408864004080B582B000AFFFF783FF0346FB710C4B0B4A1278D2B242F02002D2B232
:4009C0001A70094B084A1278D2B242F01002D2B21A7000F069FDFB791846FFF76FFF0837BD4680BD9B6500409864004080B483B000AF0023FB710C4B1B78BB71BB7903F0FE
:400A00002003002B09D0094B1B78FB71BB7903F01E03002B01D00023FB71FB7918460C37BD465DF8047B7047686400404B65004080B483B000AF094B1B78DBB203F020032A
:400A4000002B01D0012300E00023FB71FB7918460C37BD465DF8047B704700BF6864004080B582B000AF786000F03CF8786800F009F8072000F018F800F028F80837BD461D
:400A800080BD00BF80B485B000AF7860054B1B68FB60FB684C337A681A601437BD465DF8047B704708ED00E080B483B000AF0346FB71054BFA795201D2B21A700C37BD46FB
:400AC0005DF8047B704700BF03E400E080B400AF034B08221A60BD465DF8047B704700BF00E100E080B400AF034B08221A60BD465DF8047B704700BF80E100E080B500AFBB
:400B0000054B1B78002B04D100F008F8024B01221A7000F013F880BD3D81FF1F80B400AF044B72221A70044B20221A70BD465DF8047B7047816400408564004080B582B026
:400B400000AFFFF7B7FE0346FB710C4B0B4A1278D2B242F02002D2B21A70094B084A1278D2B242F01002D2B21A7000F0B7FCFB791846FFF7A3FE0837BD4680BD9164004084
:400B80009564004080B483B000AF0023FB710C4B1B78BB71BB7903F02003002B09D0094B1B78FB71BB7903F01E03002B01D00023FB71FB7918460C37BD465DF8047B70472A
:400BC000656400404164004080B483B000AF094B1B78DBB203F02003002B01D0012300E00023FB71FB7918460C37BD465DF8047B704700BF6564004080B500AF054B1B78A6
:400C0000002B04D100F008F8024B01221A7000F013F880BD3E81FF1F80B400AF044B72221A70044B20221A70BD465DF8047B7047856500408664004080B582B000AFFFF75C
:400C400039FE0346FB710C4B0B4A1278D2B242F02002D2B21A70094B084A1278D2B242F01002D2B21A7000F053FCFB791846FFF725FE0837BD4680BD956500409664004049
:400C800080B483B000AF0023FB710C4B1B78BB71BB7903F02003002B09D0094B1B78FB71BB7903F01E03002B01D00023FB71FB7918460C37BD465DF8047B70476664004058
:400CC0004565004080B483B000AF094B1B78DBB203F02003002B01D0012300E00023FB71FB7918460C37BD465DF8047B704700BF6664004080B582B000AF786000F03CF85D
:400D0000786800F009F8072000F018F800F028F80837BD4680BD00BF80B485B000AF7860054B1B68FB60FB6840337A681A601437BD465DF8047B704708ED00E080B483B008
:400D400000AF0346FB71054BFA795201D2B21A700C37BD465DF8047B704700BF00E400E080B400AF034B01221A60BD465DF8047B704700BF00E100E080B400AF034B012267
:400D80001A60BD465DF8047B704700BF80E100E080B500AF054B1B78002B04D100F008F8024B01221A7000F013F880BD3F81FF1F80B400AF044B72221A70044B20221A70F9
:400DC000BD465DF8047B7047836400408464004080B582B000AFFFF76DFD0346FB710C4B0B4A1278D2B242F02002D2B21A70094B084A1278D2B242F01002D2B21A7000F0D9
:400E0000A1FBFB791846FFF759FD0837BD4680BD936400409464004080B483B000AF0023FB710C4B1B78BB71BB7903F02003002B09D0094B1B78FB71BB7903F01E03002B3B
:400E400001D00023FB71FB7918460C37BD465DF8047B7047646400404364004080B483B000AF094B1B78DBB203F02003002B01D0012300E00023FB71FB7918460C37BD4639
:400E80005DF8047B704700BF6464004080B582B000AF786000F03CF8786800F009F8072000F018F800F028F80837BD4680BD00BF80B485B000AF7860054B1B68FB60FB6807
:400EC00048337A681A601437BD465DF8047B704708ED00E080B483B000AF0346FB71054BFA795201D2B21A700C37BD465DF8047B704700BF02E400E080B400AF034B0422D1
:400F00001A60BD465DF8047B704700BF00E100E080B400AF034B04221A60BD465DF8047B704700BF80E100E080B500AF2820FFF7CBFC032000F0D4F90520FFF7C5FC032002
:400F400000F0CEF90F20FFF7BFFC032000F0C8F90120FFF7B9FC022000F0C2F90520FFF7B3FC062000F0AAF80E2000F0A7F82C2000F0A4F8082000F0A1F8012000F09EF8FE
:400F80000C2000F09BF8032000F098F80520FFF79BFC80BD80B500AF0C2000F08FF8024B01221A7080BD00BF4081FF1F80B500AF054B1B78002B04D1FFF7B6FF024B0122B2
:400FC0001A70FFF7E7FF80BD4181FF1F80B582B000AF02460B46FA71BB71FB79032B27D801A252F823F000BFF90F0000071000001510000023100000BB79803BDBB2184677
:4010000000F05CF815E0BB79403BDBB2184600F055F80EE0BB796C3BDBB2184600F04EF807E0BB792C3BDBB2184600F047F800E000BF0837BD4680BD80B584B000AF78600C
:401040000123FB737B681B78BB730BE0BB7B184600F01AF8FB7B7A6813441B78BB73FB7B0133FB73BB7B002BF0D11037BD4680BD80B582B000AF0346FB71FB79184600F0FB
:4010800003F80837BD4680BD80B584B000AF0346FB7100F02DF8FB791B09FB73FB7B184600F0E2F8FB7903F00F03FB73FB7B184600F0DAF81037BD4680BD00BF80B584B004
:4010C00000AF0346FB7100F013F8FB791B09FB73FB7B184600F004F9FB7903F00F03FB73FB7B184600F0FCF81037BD4680BD00BF80B582B000AF4FF4CA737B60554B554A35
:401100001278D2B222F07F02D2B21A70524B1B78DBB223F00F03FB704F4BFA7842F00F02D2B21A704D4B1B78DBB223F00F03FB704A4BFA781A704A4B1B78DBB223F00F03A3
:40114000FB70474BFA781A70424B424A1278D2B222F02002D2B21A703E4B3E4A1278D2B242F04002D2B21A700020FFF7CFFB394B384A1278D2B242F01002D2B21A70012005
:40118000FFF7C4FB374B1B78FB70324B314A1278D2B222F01002D2B21A700020FFF7B6FBFB7803F00803FB702A4B2A4A1278D2B242F01002D2B21A700120FFF7A7FB254BAD
:4011C000244A1278D2B222F01002D2B21A70FB78002B02D10A20FFF799FB7B68013B7B60FB78002B02D07B68002BBDD1194B194A1278D2B222F04002D2B21A70154B154A20
:401200001278D2B222F07F02D2B21A70124B124A1278D2B222F00F02D2B21A700F4B1B78DBB223F00F03FB700C4BFA7842F00F02D2B21A700A4B1B78DBB223F00F03FB70DE
:40124000074BFA7842F00F02D2B21A700837BD4680BD00BF205100402251004023510040245100402151004080B582B000AF0346FB711A4B194A1278D2B242F02002D2B223
:401280001A70164B154A1278D2B222F04002D2B21A700020FFF73AFB104B104A1278D2B222F00F02D2B21A700C4B0C4A1278D1B2FA790A43D2B242F01002D2B21A700120C4
:4012C000FFF724FB054B054A1278D2B222F01002D2B21A700837BD4680BD00BF2051004080B582B000AF0346FB71144B134A1278D2B222F06002D2B21A70104B0F4A1278B6
:40130000D2B222F00F02D2B21A700C4B0B4A1278D1B2FA790A43D2B242F01002D2B21A700120FFF7F3FA054B044A1278D2B222F01002D2B21A700837BD4680BD2051004097
:4013400080B582B000AF0346FB71FB791B09DBB2074AD35C1846FFF78BFEFB7903F00F03034AD35C1846FFF783FE0837BD4680BDB81A000080B582B000AF786000F03CF8F3
:40138000786800F009F8072000F018F800F028F80837BD4680BD00BF80B485B000AF7860054B1B68FB60FB6850337A681A601437BD465DF8047B704708ED00E080B483B072
:4013C00000AF0346FB71054BFA795201D2B21A700C37BD465DF8047B704700BF04E400E080B400AF034B10221A60BD465DF8047B704700BF00E100E080B400AF034B1022BF
:401400001A60BD465DF8047B704700BF80E100E080B485B000AF0346FB710B4B1B78DBB223F00403FB73084BFA799200D2B202F00402D1B2FA7B0A43D2B21A701437BD4664
:401440005DF8047B704700BF6051004080B400AF054B1B78DBB203F002035B08DBB21846BD465DF8047B70476151004080B485B000AF0346FB710B4B1B78DBB223F00803B7
:40148000FB73084BFA79D200D2B202F00802D1B2FA7B0A43D2B21A701437BD465DF8047B704700BF6051004080B400AF094B094A1278D2B242F04002D2B21A70064B064A0F
:4014C0001278D2B242F04002D2B21A70BD465DF8047B7047A2430040B243004080B400AF094B094A1278D2B242F00402D2B21A70064B064A1278D2B242F00402D2B21A70A1
:40150000BD465DF8047B7047A2430040B243004080B400AF094B094A1278D2B242F01002D2B21A70064B064A1278D2B242F01002D2B21A70BD465DF8047B7047A243004025
:40154000B243004080B400AF094B094A1278D2B242F00202D2B21A70064B064A1278D2B242F00202D2B21A70BD465DF8047B7047A2430040B243004080B400AF034B1B78BB
:40158000DBB21846BD465DF8047B70476264004080B400AF034B1B78DBB21846BD465DF8047B70476064004080B400AF034B1B78DBB21846BD465DF8047B70476665004023
:4015C00080B400AF034B1B78DBB21846BD465DF8047B70476865004080B500AF054B1B78002B04D100F008F8024B01221A7000F013F880BD4281FF1F80B400AF044B722211
:401600001A70044B20221A70BD465DF8047B7047896400408D64004080B582B000AFFFF749F90346FB710C4B0B4A1278D2B242F02002D2B21A70094B084A1278D2B242F014
:401640001002D2B21A7000F077F9FB791846FFF735F90837BD4680BD996400409D64004080B483B000AF0023FB710C4B1B78BB71BB7903F02003002B09D0094B1B78FB719B
:40168000BB7903F01E03002B01D00023FB71FB7918460C37BD465DF8047B70476D6400404964004080B483B000AF094B1B78DBB203F02003002B01D0012300E00023FB7187
:4016C000FB7918460C37BD465DF8047B704700BF6D64004080B582B000AF786000F03CF8786800F009F8072000F018F800F028F80837BD4680BD00BF80B485B000AF78602F
:40170000054B1B68FB60FB6854337A681A601437BD465DF8047B704708ED00E080B483B000AF0346FB71054BFA795201D2B21A700C37BD465DF8047B704700BF05E400E03F
:4017400080B400AF034B20221A60BD465DF8047B704700BF00E100E080B400AF034B20221A60BD465DF8047B704700BF80E100E080B400AF034B1B78DBB21846BD465DF8EC
:40178000047B70476A65004080B500AF054B1B78002B04D100F008F8024B01221A7000F013F880BD4381FF1F80B400AF044B72221A70044B20221A70BD465DF8047B704720
:4017C000876400408465004080B582B000AFFFF771F80346FB710C4B0B4A1278D2B242F02002D2B21A70094B084A1278D2B242F01002D2B21A7000F0B9F8FB791846FFF7E0
:401800005DF80837BD4680BD976400409465004080B483B000AF0023FB710C4B1B78BB71BB7903F02003002B09D0094B1B78FB71BB7903F01E03002B01D00023FB71FB79BD
:4018400018460C37BD465DF8047B7047646500404764004080B483B000AF094B1B78DBB203F02003002B01D0012300E00023FB71FB7918460C37BD465DF8047B704700BFB4
:401880006465004080B582B000AF786000F03CF8786800F009F8072000F018F800F028F80837BD4680BD00BF80B485B000AF7860054B1B68FB60FB6844337A681A60143728
:4018C000BD465DF8047B704708ED00E080B483B000AF0346FB71054BFA795201D2B21A700C37BD465DF8047B704700BF01E400E080B400AF034B02221A60BD465DF8047B9B
:40190000704700BF00E100E080B400AF034B02221A60BD465DF8047B704700BF80E100E080B400AF034B1B78DBB21846BD465DF8047B70476765004080B400AF094B094A40
:401940001278D2B242F02002D2B21A70064B064A1278D2B242F02002D2B21A70BD465DF8047B7047A2430040B243004080B400AF094B094A1278D2B242F00802D2B21A701C
:40198000064B064A1278D2B242F00802D2B21A70BD465DF8047B7047A2430040B243004070B50E4B0E4D0024ED1AAD101E46AC4204D056F8242090470134F8E700F084F876
:4019C000084D094B0024ED1AAD101E46AC4204D056F8242090470134F8E770BDD41A0000D41A0000DC1A0000D41A000010B50023934203D0CC5CC4540133F9E710BD0244CF
:401A00000346934202D003F8011BFAE77047000000000000536964653A2000004F7269656E743A2000000000105100401000405100402000F0510040100000000140800069
:401A4000000101408001000301408003000701408001000901400007001401408000001501408005001B0140000100400140000A004C014000020050014020008000014029
:401A8000F0090048800080020140700A0048800080060140F00A0048800080080140700B0048800080140140F00B00488000801A0140700C00488000303132333435363778
:401AC0003839414243444546F8B500BFF8BC08BC9E4670474D000000F1030000F8B500BFF8BC08BC9E46704729000000001B00000881FF1F18000000280000000000000076
:401B00000000000000366E01C05D0000180000000000E02E0000000000000000000000000000000000000000000000000000000000000000000000000000000000000000BD
:401B40000000000000000000000000000000000000000000000000000000000000000000000000000000000000000000000000000000000000000000000000000000000065
:401B80000000000000000000000000000000000000000000000000000000000000000000000000000000000000000000000000000000000000000000000000000000000025
:401BC00000000000000000000000000000000000000000000000000000000000000000000000000000000000000000000000000000000000000000000000000000000000E5
:401C000000000000000000000000000000000000000000000000000000000000000000000000000000000000000000000000000000000000000000000000000000000000A4
:020000040003F7
:0200000480007A
:40000000045200400A640040036500400F000140370101400B0201404D0301404D04014044050140120601403C070140100801403E090140080B0140620C01403B0D0140C6
:400040000D140140501501404A1601403F1701404B18014040190140081A0140501B014006400140194101400F42014009430140054401400745014017490140064D014066
:40008000085001400251014004FF1CFF340264FF817283728438853886388772883889728C0F8D38843885728B72050109010D0123022F02310233013A203F01540F580445
:4000C00059045B045C115F0101010280044005140740080209020C400E200F4414101602172119201CC01D181E201F05210624102520268129422C102E082F053420351458
:40010000370539943D0A3F44444145294C014F40565059815B185E086D206E44760A772080108340C0F0C2F0C4F0CA39CCE0CEDED0F0D210D64F1D01210129012D01370113
:4001400039803F40540F59045B045F0100420120022009400AA810A01350184019401B112014220523022701289829292B112E102F89312A32403740381039083A213B40C9
:4001800040444104496252805B025D405E105F0565806680699470A0731079087A2080808140820183898401850A868089488E029129924494029594982299209A5A9B207B
:4001C0009C019DC39F1DA110A211A505A604AC40AD10C00FC20FC40FCABFCC1FCE0FD007D20CD6F1E6120210051F0602091F0C030D080E0C0F14100C1203140F151217094B
:40020000180C1A031E1020082404280C29052B2A300E311C330334103520360138803A023E1054185604580459045B045C115D105F018017853F86088802893F8C048D0104
:40024000910A920893149411952496069712981699109A019B289E20A220A417A806AE01B007B101B220B338B410B506B608BE54D418D604D804D904DB04DC22DD20DF0104
:40028000004002A00402061A08180A810C010D120E2210A0131014201640176018041A811D421E081F04210822102340250527542A203108371539143B403D203E445A02C7
:4002C0005D01600662016541670881018E01904291359246931096A09740983A9A7A9B219C019F04A0A0A110A2B1A50DA606A920AB51AF0CB401C0FDC2FFC4FECA04CCE21C
:40030000CE7ED681D8BDE640010109011A011E0125012D013201370139803E043F4054185604580459045B045D405F010040012002800320082009880B400E080F0210A91B
:40034000184019511AB81B201F0420042180220123202680280129512E802F1031083280380239803B503E013F2140444210480449624A204B105B205D0165806788696416
:4003800070A8802187409301A310A602AB11C00FC2CFC40FCA5DCC0ACEADD007D20CD684D8B0E6020601120216022E01340236013B803E5054185604580459045B045C6036
:4003C0005D605F0101200380050409420B010E800F2010021114141015081601182019311A031B821C041D40204121022224268028A029102B02312A324035053605394A74
:400400003A20400141094A4552015A085F0165806748680269147080720873247840794087408A21914894049C029D40C02AC238C487CA0FCC0FCE0FD00BD20CD682D8B08F
:40044000914894049C029D40AA80AB20B680EA40003302040433060C0C801E082003221428402A152C0A2E343010320F3480366038803A083B803E114032410145E0460C75
:40048000470B481649FF4AFF4BFF4EF04F44500C5401580459045A045B045C275D775F0166C06A406B02800982D087138C0C8E718F0890DC912C922293039410953196AC03
:4004C00097069A039F0CA010A131A240A30EA414A940AA20B0E0B10FB330B41FB540B908BA02BB02BF14C003C540C9FFCA07CBFFCC40CD20CEF0CF05D008D418D604D8045F
:40050000D904DA04DB04DC77DD57DF01E040E1A8E240E320004003800480050509020A140E0110801108124416841780184019211A041D041E591F802008210A23802680B0
:4005400029212A023106338438083A4041084606470448804C404D01500452045504568058025D015E485F20600461406340874088049148B104B540C0B9C28EC4DECA056D
:40058000CC0BCE0AD072D6F1D80D0201160136013B023E4054185604580459045B045C405D305F0101020420058407400A200C800E440F1015801614170118011D041E449A
:4005C0001F0423402442250827042D102E402F5435203745380239013A403BC03C803D203E053F10458847014D904F4256205A025C406001611062026F2A74807616812043
:40060000830284C0860187388D408F04902092229511964499129B419C809E769F2EA190A602A72BAC10ADA0AE80AF10C0F8C2F4C4F0CAF0CCF0CEF0D0D0D230D611D80D7E
:40064000E005E40C00170608080209100B2810061211150A175418071A101D241E081F1222012406253F2811293F2A062C042D013106320833403410353836073701382044
:400680003E04540F580459045B045C445F018006810882118330853F8608893F8D018E08901795249601970A98069A119D129F0CA004A402A806AC11AE06B010B306B40811
:4006C000B501B607B738B802BA80BE10D40FD804D904DB04DC33DF01004002200380066409040A880E4610A9151016121701184219101B801C201D801E0A20082148230138
:400700002420251027412F2A31083280374439643B013C083D2844404680584059245A015C805F2A61046320916492AB940295819720980199029D809E80A0A8A2A0A3104F
:40074000A404A508A606A701C07DC2DEC4FFCA70CC5ACE2FD6FF020104060524071208021406151016111728190A1A081B541C061E112004253F26082811293F2A062C1731
:400780002D01314032083306341035383607370138203A803E04540F580459045B045C665F0181F38201830C850C8B408D41900691039209940F95FF9807994C9A089BA300
:4007C0009D08A004A3B3A402A504A806A902AC09AD4FAE06AF90B10FB207B408B57CB78CB820BBAAD804D904DC55DF01038004020510062009280A800E15108012061324DD
:400800001524174119041B101E051F0421292242240225042601270429612A082B802E402F283080312832013714386039023A043D0859405A805C185D42906092029304A0
:40084000950296809708985099219A089B209CA09D84A080A280A568A710B002B220C078C2EEC4FFCA7FCC6FCE4FD6F00E011E0136013E40540F58045B045F010080040649
:4008800007050A0C0B010C010E1615011601172819801C801D021E142420256027902C822D102E04368237543C443D093E11411042044401452247404C034D044E044F01E6
:4008C000585059085B025F806E406F287510762077297C107D407E0A80C08102820A8408851088808B028C308D088E019002920194109564965098509B049CA89D929E209D
:400900009F51A104A281A540A728C0F1C2F1C4F0CAF0CCF0CEF0D0B0D230D61F3082360837203B40CCF0CE10021003020410062008880A040D400E800F08322080188140A0
:40094000830286308F2097409F20A482A608C0F0C2F0CC10E0E0E4A0E6400340078080028C809740A482A608A880AA20AB04AE44C030E220E860ECE0860887409740A60805
:40098000ABC0E210E640E880EC80128015015220C40CD4048A20A620B101B680E004EA02EE0102200302041007800A180E4812101504801082548624878295049E10AD0481
:4009C000AE10C0F0C2F0C430E0F0E4F0E840EC401280141088108E80C40CE20600FF08070A1E0C600EA410791A191C6100FF010F00004003020300104C00A3004F239000F2
:400A0000FF01000CF3020C08030000230000B30041000000040000000C230000080000238C200F047C18000300022A0000000010340501000200CE000CFFFFFF62A0F04151
:400A40000C0000000000021204040404222200010000000000004002001030100010101200000000000000000000000000000000CC0423000000B303FF010008F3030C107A
:400A80004F04900000024008410400000220000308040000042000030C230000032300000F0300047C188C2000082200000000544306050002C00E0006FFFFFF62A0F041EF
:400AC0000C000000000002130404040411110001000000000000400200103010001010120000000000000000000000000000000041200003CC0023000000B303FF030008CB
:400B000003000000020200104F0090000001401408230000040000000C200003F3230C0000038C207C180F040000A200000000145604030002CE000003FFFFFF62A0F0417E
:400B40000C0000000000021104040404333300010000000000004002001030100010101200000000000000000000000000000000102328000004000024031210000400006F
:400B80000A015408002300000020000300200003000400003F0400003F02000801000003010440200603381800020000000000454503060001E000C022FFFFFF62A0F0418B
:400BC0000C000000000002120404040455550001000000000000400200103010001010120000000000000000000000000000000002040000F3200C0300031010FF04000008
:400C00001F00A003030100081C04C300080200080023E3000C04000004230000112000038C200F187C04000300202A00000000156405010003E0C0000AFFFFFF62A0F04184
:400C40000C00000000000210040404044444000100000000000040020010301000101012000000000000000000000000000000000020B303020200080320000308040000E5
:400C8000FF040000CC032310F3010C08002340004F049000042300000C040000410000038C207C040F18000300082800000000156501040002CE000003FFFFFF62A0F0415E
:400CC0000C0000000000021004040404666600010000000000004002001030100010101200000000000000000000000000000000FFFF000000000000FFFF00000000000039
:400D0000007F7F0000000000FFFF0000000000000300000F0D0001000000000000000000000000000000000000000000000000000000000000000000000000000000000097
:400D40000000000000000000000000000000000000000000000000000000000000000000000000000000000000000000000000000000000000000000000000000000000073
:400D80000000000000000000000000000000000000000000000000000000000000000000000000000000000000000000000000000000000000000000000000000000000033
:400DC00000000000000000000000000000000000000000000000000000000000000000000000000000000000000000000000000000000000000000000000000000000000F3
:400E000000000000000000000000000000000000000000000000000000000000000000000000000000000000000000000000000000000000000000000000000000000000B2
:0200000490006A
:0400000000004005B7
:0200000490105A
:04000000BC90ACAF55
:0200000490303A
:02000000CB280B
:0200000490402A
:4000000000000000000000000000000000000000000000000000000000000000000000000000000000000000000000000000000000000000000000000000000000000000C0
:400040000000000000000000000000000000000000000000000000000000000000000000000000000000000000000000000000000000000000000000000000000000000080
:400080000000000000000000000000000000000000000000000000000000000000000000000000000000000000000000000000000000000000000000000000000000000040
:4000C0000000000000000000000000000000000000000000000000000000000000000000000000000000000000000000000000000000000000000000000000000000000000
:0200000490501A
:0C00000000012E12306900012E1FFB9140
:00000001FF