:400000000080002011000000850000008500000080B500AF024B034A12681A6000F036F8BC760040FA46004010B5054C237833B9044B13B10448AFF300800123237010BDE1
:400040001081FF1F000000003806000008B5064B1BB106480649AFF300800648036813B1054B03B1984708BD00000000380600001481FF1F0881FF1F0000000080B400AF5A
:40008000FEE700BF80B400AFFEE700BF80B586B000AF224B7B61224B3B61204B7B6135E03B691B68FB603B695B68BB603B699B683B6000237B600CE0FB681A68BB681A609B
:4000C000BB680433BB60FB680433FB607B6804337B607A683B689A42EED13B69DB683B6000237B6008E0BB6800221A60BB680433BB607B6804337B607A683B689A42F2D1CC
:400100003B6910333B617B69013B7B617B69002BC6D100F059FAFFF7B1FFFEE701000000B006000080B582B000AF174B174A1A60174B174A126842F400721A6000237B6065
:400140000FE07B68032B04D8124B7A6853F8223000E0114B114A796842F821307B6801337B607B682F2BECD90D4B1B78DAB20D4B1A700D4B094A1A6000F054F90B4B00229D
:400180001A600837BD4680BD0CED00E00004FA0514ED00E000000000850000000080FF1FBC7600400481FF1F08ED00E00081FF1F80B582B000AF78603960786800213A68B3
:4001C00000F031FA0837BD4680BD00BF80B584B000AFF860B9607A60F868B9687A6800F019FA1037BD4680BD80B483B000AF0346FB71FEE780B487B000AF786039600023F8
:400200003B6100237B6126E07B699B007A6813441B68BB60BB68FB73BB6823F0FF03BB6013E03B695B003A6813441B781A46BB6813443A69520039680A4452781A703B69AF
:4002400001333B61FB7B013BFB73FB7B002BE8D17B6901337B617B691D2BD5D91C37BD465DF8047B704700BF80B582B000AF424B33221A80414B18221A70414B33221A8069
:40028000404B18221A70404B33221A803F4B18221A703F4B33221A803E4B18221A703E4B33221A803D4B18221A703D4B33221A803C4B18221A703C4B33221A803B4B1822A5
:4002C0001A703B4B02221A704FF0402308221A70384B03221A70384B384A1278D2B21A70374B08221A80374B41F251221A800023FB7019237B6014E0FB785B00DAB2324BA3
:400300001B78DBB203F00103DBB21343DBB203F00303FB704FF4F07000F042F97B68013B7B607B68002B02D0FB78032BE4D17B68002B02D10320FFF757FF244B4FF48072E0
:400340001A80224B07221A70214B00221A70214B48221A701D4B00221A701F4B02221A701E4B1E4A1278D2B242F07F02D2B21A700837BD4680BD00BF80400040824000403F
:400380008440004086400040884000408A4000408C4000408E40004090400040924000409440004096400040984000409A4000400043004000420040A1460040080100490B
:4003C00022420040204200402542004004400040064000400840004001400040A243004080B483B000AF0B4B1B78FB710A4BFA7902F00702D2B21A70084BFA791209D2B237
:400400001A70074B44221A700C37BD465DF8047B704700BFCF0100496E5800406F5800407658004080B586B000AF72B64A4B4A4A1278D2B242F00402D2B21A700023FB75DA
:4004400013E0FA7D13465B0013445B00434A13443B613B691A683B699B889BB210461946FFF7A6FEFB7D0133FB75FB7D072BE8D90023FB751CE0FA7D13469B0013445B0070
:40048000374A1344FB60FB681B68BB60FB685B687B60FB681A7A5B7A1B0213437B807B88B86879681A46FFF791FEFB7D0133FB75FB7D022BDFD94FF090402A49FFF79AFE5B
:4004C000294B294A1278D2B242F00202D2B21A70264B264A1278D2B242F00202D2B21A70234B234A1278D2B242F04002D2B21A70204B204A1278D2B242F01002D2B21A70F0
:400500001D481E490A22FFF761FE1D481D490822FFF75CFE1C481D490822FFF757FE1C4B1B4A1278D2B242F00802D2B21A70194B61221A70FFF798FE164B81221A70164BDA
:4005400001221A70FFF74CFF144809490E22FFF73DFE1837BD4680BDE84600403C0600006C060000780000480350014013500140A0430040C243004000510040300B004859
:40058000C25100403C0B0048F2510040440B0048224300400048004004000840B04300400230800800F0058000BF013800467FF4FCAF7047EFF3108072B6704780F31088F5
:4005C000704700BFAFF3008070B50E4B0E4D0024ED1AAD101E46AC4204D056F8242090470134F8E700F052F8084D094B0024ED1AAD101E46AC4204D056F824209047013470
:40060000F8E770BD9806000098060000A00600009806000010B50023934203D0CC5CC4540133F9E710BD02440346934202D003F8011BFAE7704700000000000010510040F7
:40064000600080000140800180020140800D00140140800000150140000700400140000A004C0140000200500140200000000140B0090048800000020140300A0048800084
:4006800080140140B00A004880000000F8B500BFF8BC08BC9E4670474D00000025010000F8B500BFF8BC08BC9E46704729000000C00600000881FF1F0800000020000000B4
:4006C00000000000000000000000000000000000000000000000000000000000000000000000000000000000000000000000000000000000000000000000000000000000FA
:4007000000000000000000000000000000000000000000000000000000000000000000000000000000000000000000000000000000000000000000000000000000000000B9
:400740000000000000000000000000000000000000000000000000000000000000000000000000000000000000000000000000000000000000000000000000000000000079
:400780000000000000000000000000000000000000000000000000000000000000000000000000000000000000000000000000000000000000000000000000000000000039
:020000040003F7
:0200000480007A
:40000000055200400A640040036500400B0001402F010140110201404D0301405504014043050140550601404A070140090901404E0A0140480B01404B0C0140490D014031
:40004000570E0140350F01400A1401404515014043160140381701400A190140011B01400A4101400A42014005430140044801400249014007500140004001400483640CA5
:400080007C08807281388272847285388A0F8B728C388E388F388572863887728201A301B301B601D418D804D904DB04DC21DD30DF01018002020324068009080A840B01F8
:4000C00010A8120119161B601E01204822542604288029902A212F40302031043240330438683A024084422048044A2252405A085D0265606958709C72068F40C017C20F8D
:40010000C40FCA8DCC0ECE0FD007D20CD682D830853F893F8D049522978999119B8A9D089F70B104B303B5C0B738BF10D904DC30DF01051407420D200E220F4016011709A6
:400140001C201D101E021F1220042108224223012440269027222C082E402F103020310832403410369139583C103E0A3F40449045104E084F4057605F206E846F047408DD
:400180007504760B7708834084808680871088048B208E088F0291589220940497819D409E80A224A420A508A602A920AA01AE01B240C0F0C2F0C4B0CA70CCBECEFED0E0B4
:4001C000D230D620E006E808EA04EE01004001020345045F059F085F099F0C020E0515141620172A18141A0A1D8020092212262029092B32300731073240331834183560C6
:40020000362037803E403F10404141034206440245E047C0482249FF4AFF4BFF4C624DA04EF04F41500C56025713580459045A045B045C205D225F016640670269106A30A6
:400240006B106D106E106F1285678D218FCA900191029315956798019D449F2AA401B160B380B518B601B707BF10D418D804D904DB04DC55DF01002A03020A280E841102F4
:400280001220170419481A181B021E02208421492410251027412A20310832403745391A3E44406441404201488049204A014B4050015A025D026408670169186A807316B9
:4002C00084808C019264941097C098049B049DC09F41A264A510A840A920AA40AC20B010B580C00FC256C42CCA04CCDACE57D00FD204D681D830E008E408EC04011C032263
:40030000050809180D270F18111014011704193F2104291C2B212F2331383401371F3B8A3E10580459045C205F01801C82E384FF8701880F8AF08CC38D0490419308948268
:400340009701980499049D049ED3A008A104A80CAB08ACF3AE0CAF02B00FB104B220B303B41CB6C0B708B808BA02BB20BF45C043C101C202C406C6E0C7C0C828C9FFCAFF7F
:40038000CBFFCC62CDA0CEF0CF41D00CD804D904DA04DC02DF01E640E702E910EA30EB10ED10EE10EF12008001010284031009080A010B860C0412011312184819A11B0873
:4003C0001F2022192301248026802710280829012A012B062C082F413102328433103604371238803A083C403D013F14408842124A085102531058205B10804882048B08E6
:4004000092199394944096029701980499089A089B029C209DA2A040A109A204A302A415A901AA08AE20AF40B008C00FC22FC40BCABDCCEFCEFAD00FD204890194109506F9
:400440009C0A9F10A580B304E020EA804054410145E046B0470C481A49FF4AFF4BFF4EF04F44500C54015A045B045D445F0166C06A406B0281448508860189808A018DDC0D
:400480008E048F2193E3951C960297E299E79A089B189C019D10A202A304A5FFA604A801A918ADC0AE08B001B204B3D8B402B51FB608B738B802BBA8BE54C005C540C9FF93
:4004C000CA07CBFFCC40CD20CEF0CF05D008D602D712D804D904DA04DB04DC10DD14DF01E040E1A8E240E320045007100D840E08140A15061C441D401F04254027252C80B4
:400500002E602F103580360137243C023DA03E0841024202480849124A024E014F01502855025701580159125A845F086C106E206F227580763D840185048E0492C693200B
:40054000942497019A029B089C019D409E159F25A080A110A203A428A610A723AB80B101B501C0E0C2E0C4F0CAF0CCF0CEF0D009D218D64FE040ECC000100310040C080489
:4005800009040B020F01103014201701183F190E1D021E321F04200C22332310240E250E263128332A0C2C082D0830303108320E331035063601370138803A203F44541844
:4005C000580459045B045C115D505F01800C82118D078E038F1890209409950696109709981C99149A029B09A010A107A308A414AB10AC10AE0CAF0BB11EB420B61FB701D9
:40060000BB02BE10BF40D804D904DC44DF0101820614078008190A200E4A0F201020120213011601172519801A041E091F19204021022242240825592601280829022A0281
:400640002B012FA2301831103618378038403C023D203FA04402454846205D016402662082088780880189808F409262942C9601972399129B089D419FA5A080A503A61095
:40068000A709AB50AC80B010C079C2FEC4FDCADDCC76CEB8D680D830E080E440E680EC8000050238100511031258167018701A0D1E20210329022C022E0C2F0130683103CE
:4006C0003203343C380839023A223F015418580459045B045C045D205F018001820A8404860A88078B018F029002910492159407950499049E20A504AB02AE20AF01B007C4
:40070000B101B220B504B618B702BB08BE44BF51C024C103C206C401C60CC7E0C824C9FFCAFFCBFFCC62CDA0CEF0CF41D00CD418D804D904DA04DB04DC31DD11DF01E64083
:40074000E702E910EA30EB10ED10EE10EF1201020428078009020A240B010E611001160119321A241D801E401F04220124022758280129222B012C182F1A3102372539018F
:400780003B023C203F804410458147204C094D805601574059015D0160046140658067088F02C078C2BFC481CA7DCCE1CE30D0F0D220D681D83CE440010115011901220128
:4007C00031013601580459045C605F010401056409100B040CA00F60110216A017201A021C401D1C1E061F04234024012510260427402C902E402F04331435223610374804
:4008000038023C493E803F20452847014D224F4057205E086C016F1474A477288604870188108B4092409602970499409A209D109F14A121A210A310A601A720AB33AC8099
:40084000AD20C0F0C2F0C478CAF0CCF6CEF1D0E0D230D640EC02040206450C090EB21B011C141E2A241F2701281F308032073301346036183B203E103F04541858045904A0
:400880005B045C665D605F01801C810482E386F389088CC38D109041930494FF95189882993F9CF39D3C9E0C9F02A008A404A703A80CA927AB18AC0FAD3CAEF0AF01B0C08E
:4008C000B21CB40FB520B62CB71FBAA0BB80BF10D602D712D804D904DB04DF01010802800302050406200702088009010A280E0110A9171419A21B041D641E4122C02308F7
:4009000026102720280129A82F2030083251351038A039013D035B085E026705681570F88D808E40922899089C809D02A101A302A415A704AF20B310B404B612C0ADC28F1F
:40094000C46FCA4ECC2FCE0DD682D8308C108F1094109F10A580B104B40AE010E440E870AD800210038006200E0467088610C030C280D880E0400340064087809708A38069
:40098000AA20AE04C030E410E8609708AB40AE40E810EC800410AF04C080EE10A810EC80003F082E0A250C130E3E10411A41000000100000F3180C000F08F0000000E304BA
:4009C0000C00F300823C008104040040C3BC000208BF0000410000000CA70018FF000083C0402C200F98101F800028800000000435040600020C0E0005FFFFFF62A0F041BD
:400A00000C0000000000021204040404333300010000000000004002001030100010101200000000000000000000000000000000821000000C080000F3000C041C00E303B0
:400A4000003CF341FF000000417F00000F3CF042C30000000467001800180000080400001C40C0200F002C1F0002A0A000000004450306000200EC000CFFFFFF62A0F0410C
:400A80000C00000000000211040404045555000100000000000040020010301000101012000000000000000000000000000000001C3CE382F3180C00FF040000823C008182
:400AC0000000F3404108000004BF0000080000400F10F000C30000030CA70018000000042C800F201C40C01F00020A80000000143506040002E0C0000AFFFFFF62A0F041FA
:400B00000C00000000000212040404046666000100000000000040020010301000101012000000000000000000000000000000004000834040004000000000000C00000065
:400B4000000000000800000000000000000000000000000000000000000000000000000000000000000000000000000000000000000000000000000000000000000000006D
:400B80000000000000000000000000000000000000000000000000000000000000000000000000000000000000000000000000000000000000000000000000000000000035
:400BC00000000000000000000000000000000000000000000000000000000000000000000000000000000000000000000000000000000000000000000000000000000000F5
:400C000000000000000000000000000000000000000000000000000000000000000000000000000000000000000000000000000000000000000000000000000000000000B4
:400C40000000000000000000000000000000000000000000000000000000000000000000000000000000000000000000000000000000000000000000000000000000000074
:0200000490006A
:0400000000004005B7
:0200000490105A
:04000000BC90ACAF55
:0200000490303A
:020000009A9BC9
:0200000490402A
:4000000000000000000000000000000000000000000000000000000000000000000000000000000000000000000000000000000000000000000000000000000000000000C0
:400040000000000000000000000000000000000000000000000000000000000000000000000000000000000000000000000000000000000000000000000000000000000080
:400080000000000000000000000000000000000000000000000000000000000000000000000000000000000000000000000000000000000000000000000000000000000040
:4000C0000000000000000000000000000000000000000000000000000000000000000000000000000000000000000000000000000000000000000000000000000000000000
:0200000490501A
:0C00000000012E16106900012E1BAB043D
:00000001FF