:4000000000100020110000005D0500005D05000080B500AF00F0A6FA80B584B000AF021CFB1D1A70204A3B1C0B3312781A701F4A3B1C0A3312781A700423013BFB6018E095
:400040001B4B1868391C0B31FA68131C5B009B18C3185B780B70164B1868391C0A31FA68131C5B009B18C3189B780B70FB68013BFB60FB68002B0ADB0D4B1968FA68131CF1
:400080005B009B185B5CFA1D12789A42D8D9094B3A1C0B3212781A60074B3A1C0A3212781A60BD4604B080BDCCF1FF0FCDF1FF0FD00000201CFF0B4020FF0B4080B500AF4B
:4000C0001F4B1F4A12688021C9020A431A601820FFF7A2FF1B4B19221A60052000F048FB194B1A4A1278D2B21A60052000F004FC134B134A1168164A0A401A60154B164AC1
:400100001A60164B10221A60154B20221A60154B30221A60144B11221A60144B802212061A60134B134A1A60134B124A1A60134B134A1A60134B124A1A60BD4680BDC04639
:4001400000010B402CFF0B4028FF0B40E5F1FF0FFFFFFBFF04010B4006000080080202400C020240340202403C02024008010B400000024033000080400002408000024078
:400180004D0000800400024080B582B000AF72B64E4B01221A70FB1D00221A7023E0FB1D1A78131C5B009B185B00494A9B183B603B681A78597809020A43997809040A43F5
:4001C000DB781B0613431A1C3B6819795B791B020B439BB2101C191C00F042FAFB1D1A78FB1D01321A70FB1D1B78012BD7D9394A394B101C191C00F043FA384BA0221201BE
:400200001A80374B01221A70364B992212041A60354BEE2212021A60344B09221A60344BA0221A60334B344A1A60344B20221A60334BC02252031A60324B334A1A60334B5A
:40024000E0221A60324B334A1A60334B01221A60324B992212041A60314B802212061A60304B992212041A602F4B304A1A60304B304A1A60304B992212041A602F4B0522F1
:400280001A602F4B06221A602E4B2E4A1278D2B202210A43D2B21A702B4B2B4A1278D2B23C218A43D2B214210A43D2B21A70254B244A1278D2B216210A43D2B21A70FFF780
:4002C000FDFE00F01DFABD4602B080BD1C700F4098110000A4110000CC11000000600F4002600F40000001400C000140100001400000044008000440001043001800044076
:400300000801044008020440DBB66D000003044008030440800DDB000804044000500F4004500F4010500F4020500F400400990024500F400000AAAA30500F402000004043
:4003400000800F4000700F4001700F4010B5064C2378002B07D1054B002B02D0044800E000BF0123237010BDE8000020000000009011000008B5084B002B03D00748084967
:4003800000E000BF07480368002B03D0064B002B00D0984708BDC0460000000090110000EC000020C80000200000000080B582B000AF0A1CFB1D011C1970BB1D1A70FB1DE7
:4003C0001B78312B03D1012000F09EF902E0002000F09AF9BB1D1B78044AD35C181C00F099FDC046BD4602B080BDC046CC00002080B500AF07E000F0CBFC031CDBB2181C1F
:400400000021FFF7D3FF00F051FC031C002BF2D1024B034A1A60BD4680BDC046C00F0640ED0F000080B500AF07E000F0D1FB031CDBB2181C0121FFF7B9FF00F041FB031C9C
:40044000002BF2D1024B034A1A60BD4680BDC046C00F0740ED0F000080B500AF06E000F0A5FA031C181C0321FFF7A0FF00F0C4FA031C002BF3D1BD4680BDC04680B500AFD7
:4004800006E000F0EDFC031C181C0221FFF78EFF00F00CFD031C002BF3D1BD4680BDC04690B583B000AF00F03BFA00F0C9FB00F091FC00F0CFFA244B181C00F0D3FB234B32
:4004C000181C00F0D9FA224B181C00F063FD214B181C00F0B9FD62B6FB1DFF221A70BC1D00F038F9031C2370BA1DFB1D12781B789A420DD0BB1D1B78002B01D0312300E0E7
:400500003023181C00F0ECFAFB1DBA1D12781A707C1D00F023FD031C23707B1D1B78002B03D00D4B7A1D1278DA703C1D00F024FD031C23703B1D1B78002B04D0064B3A1D66
:4005400012789A70CBE7CAE7F103000025040000590400007D040000CC00002080B500AFFEE7C04680B586B000AF224B7B61224B3B61204B7B6135E03B691B68FB603B69E0
:400580005B68BB603B699B683B6000237B600CE0FB681A68BB681A60BB680433BB60FB680433FB607B6804337B607A683B689A42EED13B69DB683B6000237B6008E0BB68A5
:4005C00000221A60BB680433BB607B6804337B607A683B689A42F2D13B6910333B617B69013B7B617B69002BC6D100F0A3FDFFF757FFFEE7010000001815000080B582B056
:4006000000AF00237B600FE07B68032B04D8104B7A689200D35800E00E4B0F4A796889008B507B6801337B607B682F2BECD9FFF7ABFD0A4B00221A608023DB058022D205E1
:40064000126801210A431A60BD4602B080BDC046000000005D05000000000020C000002080B582B000AF786039607A683B68101C00211A1C00F084FDBD4602B080BDC046C5
:4006800080B586B000AF7860396000233B6100237B612EE07B699B007A68D3181B68BB603B1C0F33BA681A70BB68FF229343BB6017E03B695B003A68D3181B781A1CBB6810
:4006C000D3183A69520039688A1852781A703B6901333B613B1C0F331A783B1C0F33013A1A703B1C0F331B78002BE2D17B6901337B617B69092BCDD9BD4606B080BDC046CE
:4007000080B500AFBD4680BD80B584B000AF021CFB1D1A700E4B1B68DAB23B1C0F3340218A431A70FB1D1B789B01DAB240231340D9B23B1C0F333A1C0F3212780A431A705F
:40074000034B3A1C0F3212781A60BD4604B080BD0001044080B500AF044B1A6880231340DB09DBB2181CBD4680BDC046040004400230800804D0C0460138FDD1C046C046D2
:40078000C0467047EFF3108072B6704780F310887047C046C046C04680B584B000AF021C3960FB1D1A7080239B05FB60FB1D1B781F2B02D9002000F095F8FB1D1B781033ED
:4007C0009B00FA68D3181B68BB60FB1D1B7810339B00FA68D3183A681A60BB68181CBD4604B080BD90B587B000AF0A1CFB1D011C1970BB1D1A70BB1D1B78032B02D9002031
:4008000000F070F8FB1D1B781F2B02D9002000F069F8FB1D1A7803231340DB0006337B613C1C1334FFF7AEFF031C2370FB1D1B789B08DBB29B0014495B181B68FB607B6910
:400840000322111C99400B1CDA43FB681340FB60BB1D1A787B69111C99400B1CFA681343FB60FB1D1B789B08DBB29B00064A9B18FA681A603B1C13331B78181CFFF786FF36
:40088000BD4607B090BDC04600E400E080B582B000AF021CFB1D1A70064BFA1D11781F220A400121081C9040021C1A60BD4602B080BDC04600E100E080B582B000AF021C7A
:4008C000FB1D1A70064BFA1D11781F220A400121081C9040021C1A60BD4602B080BDC04680E100E080B582B000AF021CFB1D1A7001BEBD4602B080BD80B582B000AF021C38
:40090000BB1D1A80BB1D1B88044A12785343181CFFF72EFFBD4602B080BDC046DC00002080B500AF064B1B78002B04D100F00AF8034B01221A7000F013F8BD4680BDC0461B
:400940000401002080B500AF034B72221A70034B20221A70BD4680BD80000F4081000F4090B583B000AFFC1DFFF70CFF031C23700C4B0C4A1278D2B220210A43D2B21A70BF
:40098000094B094A1278D2B210210A43D2B21A7000F0A4FAFB1D1B78181CFFF7F7FEBD4603B090BD90000F4091000F4080B582B000AFFB1D00221A700D4ABB1D12781A70BF
:4009C000BB1D1A78202313400BD00A4AFB1D12781A70BB1D1A781E23134002D0FB1D00221A70FB1D1B78181CBD4602B080BDC04661000F4041000F4080B582B000AF094B87
:400A00001B78DBB21A1C2023134001D0012300E00023FA1D1370FB1D1B78181CBD4602B080BDC04661000F4080B500AF00F06EF8BD4680BD80B500AF054B054A1268802199
:400A400009060A431A6000F023F8BD4680BDC0460000074080B500AF064B1B78002B04D1FFF7E2FF034B01221A70FFF7E3FFBD4680BDC0460801002080B582B000AF786039
:400A8000024B7A681A60BD4602B080BD0C01002080B500AF0B20FFF7F9FEBD4680BDC04680B582B000AF00237B60044B1B687B607B68181CBD4602B080BDC04640030740D2
:400AC00080B582B000AF054B1A680F2313407B607B68181CBD4602B080BDC0460803074080B582B000AF7860C046064B1A680F231340082BF9D0044B7A681A60BD4602B0A5
:400B000080BDC046080207404002074080B500AF1D4B1E4A1A601E4B00221A601D4B21221A601D4B1D4A1A601D4B07221A601D4B00221A601C4B21221A601C4B174A1A6082
:400B40001B4B00221A600B20FFF7B6FE0B200321FFF748FE174B0B20191CFFF71DFE164B00221A60154B00221A60154B00221A60144B00221A60144B04221A60134B0022D1
:400B80001A60BD4680BDC046000007400B000002400007404800074000030740070000800403074010030740440007400002074004020740FD100000880E0740C80E07406A
:400BC000480F0740080F0740C80F0740880F074080B582B000AF00237B60FFF771FF031C002B03D0FFF75CFF031C7B60084B1A68D8239B00134005D000237B60044BD82241
:400C000092001A607B68181CBD4602B080BDC046C00F074080B500AF00F058F8BD4680BD80B500AF054B054A1268802109060A431A6000F023F8BD4680BDC0460000064014
:400C400080B500AF064B1B78002B04D1FFF7E2FF034B01221A70FFF7E3FFBD4680BDC0461001002080B582B000AF7860024B7A681A60BD4602B080BD1401002080B500AFE9
:400C80000A20FFF703FEBD4680BDC04680B582B000AF00237B60044B1B687B607B68181CBD4602B080BDC0464003064080B582B000AF054B1A680F2313407B607B68181C15
:400CC000BD4602B080BDC0460803064080B500AF1D4B1E4A1A601E4B00221A601D4B01221A601D4B1D4A1A601D4B07221A601D4B00221A601C4B01221A601C4B07221A600D
:400D00001B4B00221A600A20FFF7D6FD0A200321FFF768FD174B0A20191CFFF73DFD164B00221A60154B00221A60154B00221A60144B00221A60144B04221A60134B0022B5
:400D40001A60BD4680BDC046000006400B00000240000640480006400003064007000080040306401003064044000640000206400402064019110000880E0640C80E064096
:400D8000480F0640080F0640C80F0640880F064080B582B000AF00237B60FFF787FF031C002B03D0FFF772FF031C7B60084B1A68D8239B00134005D000237B60044BD82257
:400DC00092001A607B68181CBD4602B080BDC046C00F064080B500AF064B1B78002B04D100F00AF8034B01221A7000F013F8BD4680BDC0461801002080B500AF034B7222CE
:400E00001A70034B20221A70BD4680BD83000F4082000F4090B583B000AFFC1DFFF7B2FC031C23700C4B0C4A1278D2B220210A43D2B21A70094B094A1278D2B210210A430B
:400E4000D2B21A7000F058F8FB1D1B78181CFFF79DFCBD4603B090BD93000F4092000F4080B582B000AFFB1D00221A700D4ABB1D12781A70BB1D1A78202313400BD00A4AA4
:400E8000FB1D12781A70BB1D1A781E23134002D0FB1D00221A70FB1D1B78181CBD4602B080BDC04662000F4042000F4080B582B000AF094B1B78DBB21A1C2023134001D032
:400EC000012300E00023FA1D1370FB1D1B78181CBD4602B080BDC04662000F4080B500AF044B044A1268802109060A431A60BD4680BDC0460400024080B500AF044B044A2A
:400F00001268802109060A431A60BD4680BDC0468000024080B584B000AF021CFB1D1A700D4B1B68D9B23B1C0F331F220A401A70FB1D1B785B01D9B23B1C0F333A1C0F320A
:400F400012780A431A70044B3A1C0F3212781A60BD4604B080BDC0460003044080B500AF044B1A68F02313401B09DBB2181CBD4680BDC0460402044080B500AF044B1B689F
:400F8000DAB20F231340DBB2181CBD4680BDC0460402044080B582B000AF786000F04AF87B68181C00F008F8032000F011F800F037F8BD4602B080BD80B582B000AF78608D
:400FC000024B7A689A64BD4602B080BD0000002090B585B000AF021CFB1D1A701623FB603C1C0B34FFF7CEFB031C23700A4B0A4A11680A4A1140FA1D1078FA68041C944071
:40100000221C0A431A603B1C0B331B78181CFFF7BDFBBD4605B090BD00E400E0FFFF3FFF80B500AF024B04221A60BD4680BDC04600E100E080B500AF024B04221A60BD46F0
:4010400080BDC04680E100E080B582B000AF786000F04AF87B68181C00F008F8032000F011F800F037F8BD4602B080BD80B582B000AF7860024B7A681A64BD4602B080BD0B
:401080000000002090B585B000AF021CFB1D1A700623FB603C1C0B34FFF774FB031C23700B4B0B4A1268C021101C8843011CFA1D1078FA68041C9440221C0A431A603B1C8A
:4010C0000B331B78181CFFF761FBBD4605B090BD00E400E080B500AF024B01221A60BD4680BDC04600E100E080B500AF024B01221A60BD4680BDC04680E100E080B500AFC2
:40110000044B1B68002B02D0024B1B689847BD4680BDC0460C01002080B500AF044B1B68002B02D0024B1B689847BD4680BDC0461401002070B50E4B0E4D0024ED1AAD1020
:401140001E1CAC4204D0A300F35898470134F8E700F0D0F9084B094D0024ED1AAD101E1CAC4204D0A300F35898470134F8E770BD00150000001500000015000008150000E2
:40118000031C8218934202D019700133FAE77047000000000400000000300F40000400400F40000404000F406E300F4048310F4069320F4058330F4006400F4003410F406C
:4011C00009420F4005430F4002600F40807281388238837200FF0120044C053006A308F309100A0C0C4F0D700E900F0F1003110314021502180419011EB31F0B2008217F5A
:401200002441254F2730280C29782B072E40308C3140320F3338347C3503370439803AAA3F0156025713580459045B045C335D305F0180028102824587018B088C80910254
:4012400094149504962A989F9B089D02A102A49FA504A809A904AA32AD04B007B108B218B302B460B504B680B701B928BE10BF15C061C104C203C402C6C0C70EC818C9FFD9
:40128000CAFFCBFFCC62CDA0CEF0CF41D00CD418D604D804D904DA04DB04DC33DD33DF01E640E702E910EA30EB10ED10EE10EF120041020403200501070109880A400B04A0
:4012C0000D080E041080118813101718184119141B601DA91E402008220123212404255426122710284029142A042B502C202D012F093189331034103681372438683A0259
:401300003C223D08445045A049804A024F20541056085A025F026580661067406A046B09709472027314874088058B02C09FC26FC46FCAF7CCFFCEEFD0F0D220D681D8B02D
:401340000302070408020A450B0114091632170418141A2A1C80249F2702289F2B082F08308031013207330834183502366037043E403F544052410442064401450C47E0B8
:40138000482149FF4AFF4BFF4C624DA04EF04F41500C54185604580459045A045B045C115D115F016640670269106A306B106D106E106F1281208210841C850186C3893039
:4013C0008AE38CF38D708E0C8F0F901F92A0930B940C957F980299109CFFA008A14FA330A404A578A707A811A902AC03AD03B08CB140B338B47CB504B60FB703B920BAAA5D
:40140000BF01D602D713D804D904DB04DC11DD10DF010180020403600410084009280A400D600E2010A111201728184019841A401BA01C101DB2200122192504274528033A
:4014400029102BA02D202E082F0230243106360838443A023B103D203F054280430144404580465447044D804E084F04570259205A225C0164086680678069806B2870A02D
:401480007108720273107C087D0881028204874088048A408C12900493019A089E10A110A210B020B101B280B308B601B705C04FC2EFC46FCA7FCC47CEEFD0B0D230D6814D
:4014C000D8B06F0273028702DA80DC20E6408702A702E21000880482082009010C428840C00FC20FE201B066B441B501EA0FEE0D100A1101F8B5C046F8BC08BC9E467047D5
:4015000075030000FD050000F8B5C046F8BC08BC9E4670474D03000028150000C8000020200000003800000000000000FFFFFFFFC0F1FF0F00366E01C05D00001800000009
:401540000000E02E0000000000000000000000000000000000000000000000000000000000000000000000000000000000000000000000000000000000000000000000005D
:40158000000000000000000000000000000000000000000000000000000000000000000000000000000000000000000000000000000000000000000000000000000000002B
:4015C00000000000000000000000000000000000000000000000000000000000000000000000000000000000000000000000000000000000000000000000000000000000EB
:4016000000000000000000000000000000000000000000000000000000000000000000000000000000000000000000000000000000000000000000000000000000000000AA
:40164000000000000000000000000000000000000000000000000000000000000000000000000000000000000000000000000000000000000000000000000000000000006A
:0200000490303A
:0200000009886D
:0200000490402A
:200000000000000000000000000000000000000000000000000000000000000000000000E0
:0200000490501A
:0C000000000204C81193110104CF1B1B67
:0200000490600A
:0100000001FE
:00000001FF